S00C0000547030312E73726563F3
S11300000C9434000C943E000C943E000C943E007E
S11300100C943E000C943E000C943E000C943E0064
S11300200C943E000C943E000C943E000C943E0054
S11300300C943E000C943E000C943E000C943E0044
S11300400C943E000C943E000C943E000C943E0034
S11300500C943E000C943E000C943E000C943E0024
S11300600C943E000C943E0011241FBECFEFD8E048
S1130070DEBFCDBF0E944B000C944E000C940000D8
S113008000E804BD00E405BD000063BC02C075BC0B
S1130090FCCF75BCFACF0E944000FFCFF894FFCF8D
S9030000FC
